{
  "address": "0x5FbDB2315678afecb367f032d93F642f64180aa3",
  "abi": [
    {
      "inputs": [
        {
          "internalType": "uint256",
          "name": "_minimum_goalAmount",
          "type": "uint256"
        },
        {
          "internalType": "uint256",
          "name": "_minimum_fundAmount",
          "type": "uint256"
        }
      ],
      "stateMutability": "nonpayable",
      "type": "constructor"
    },
    {
      "inputs": [],
      "name": "CrowdFund__AlreadyWithdraw",
      "type": "error"
    },
    {
      "inputs": [],
      "name": "CrowdFund__CampaignDoesNotExist",
      "type": "error"
    },
    {
      "inputs": [],
      "name": "CrowdFund__CampaignIsClosed",
      "type": "error"
    },
    {
      "inputs": [],
      "name": "CrowdFund__CantWithdrawGoalNotReached",
      "type": "error"
    },
    {
      "inputs": [],
      "name": "CrowdFund__GoalAmountMustBeMoreThanZero",
      "type": "error"
    },
    {
      "inputs": [],
      "name": "CrowdFund__NoContributions",
      "type": "error"
    },
    {
      "inputs": [],
      "name": "CrowdFund__NotEnoughContributionAmount",
      "type": "error"
    },
    {
      "inputs": [],
      "name": "CrowdFund__OnlyCampaignOwner",
      "type": "error"
    },
    {
      "inputs": [],
      "name": "CrowdFund__PeriodDaysShouldBeBetween1to365",
      "type": "error"
    },
    {
      "inputs": [],
      "name": "CrowdFund__ReclaimConditionsDoesNotMet",
      "type": "error"
    },
    {
      "anonymous": false,
      "inputs": [
        {
          "indexed": true,
          "internalType": "address",
          "name": "campaignOwner",
          "type": "address"
        },
        {
          "indexed": true,
          "internalType": "uint256",
          "name": "id",
          "type": "uint256"
        }
      ],
      "name": "Create",
      "type": "event"
    },
    {
      "anonymous": false,
      "inputs": [
        {
          "indexed": true,
          "internalType": "address",
          "name": "from",
          "type": "address"
        },
        {
          "indexed": true,
          "internalType": "uint256",
          "name": "amount",
          "type": "uint256"
        },
        {
          "indexed": true,
          "internalType": "uint256",
          "name": "id",
          "type": "uint256"
        }
      ],
      "name": "Fund",
      "type": "event"
    },
    {
      "anonymous": false,
      "inputs": [
        {
          "indexed": true,
          "internalType": "address",
          "name": "from",
          "type": "address"
        },
        {
          "indexed": true,
          "internalType": "uint256",
          "name": "testId",
          "type": "uint256"
        }
      ],
      "name": "Test",
      "type": "event"
    },
    {
      "inputs": [
        {
          "internalType": "string",
          "name": "hash",
          "type": "string"
        }
      ],
      "name": "claimRefund",
      "outputs": [],
      "stateMutability": "nonpayable",
      "type": "function"
    },
    {
      "inputs": [
        {
          "internalType": "string",
          "name": "hash",
          "type": "string"
        }
      ],
      "name": "closeCampaign",
      "outputs": [],
      "stateMutability": "nonpayable",
      "type": "function"
    },
    {
      "inputs": [
        {
          "internalType": "string",
          "name": "hash",
          "type": "string"
        },
        {
          "internalType": "uint256",
          "name": "_goalAmount",
          "type": "uint256"
        },
        {
          "internalType": "uint256",
          "name": "_fundingPeriodInDays",
          "type": "uint256"
        }
      ],
      "name": "createCampaign",
      "outputs": [],
      "stateMutability": "nonpayable",
      "type": "function"
    },
    {
      "inputs": [
        {
          "internalType": "string",
          "name": "hash",
          "type": "string"
        }
      ],
      "name": "fundCampaign",
      "outputs": [],
      "stateMutability": "payable",
      "type": "function"
    },
    {
      "inputs": [],
      "name": "getAllCampaigns",
      "outputs": [
        {
          "components": [
            {
              "internalType": "address payable",
              "name": "campaignOwner",
              "type": "address"
            },
            {
              "internalType": "uint256",
              "name": "id",
              "type": "uint256"
            },
            {
              "internalType": "string",
              "name": "campaignUrl",
              "type": "string"
            },
            {
              "internalType": "string",
              "name": "campaignHash",
              "type": "string"
            },
            {
              "internalType": "uint256",
              "name": "goalAmount",
              "type": "uint256"
            },
            {
              "internalType": "uint256",
              "name": "totalAmountFunded",
              "type": "uint256"
            },
            {
              "internalType": "uint256",
              "name": "deadline",
              "type": "uint256"
            },
            {
              "internalType": "bool",
              "name": "goalAchieved",
              "type": "bool"
            },
            {
              "internalType": "bool",
              "name": "isCampaignOpen",
              "type": "bool"
            },
            {
              "internalType": "bool",
              "name": "isExists",
              "type": "bool"
            },
            {
              "internalType": "bool",
              "name": "isOwnerWithdraw",
              "type": "bool"
            }
          ],
          "internalType": "struct CrowdFund.Campaign[]",
          "name": "",
          "type": "tuple[]"
        }
      ],
      "stateMutability": "view",
      "type": "function"
    },
    {
      "inputs": [
        {
          "internalType": "string",
          "name": "hash",
          "type": "string"
        }
      ],
      "name": "getCampaignByHash",
      "outputs": [
        {
          "components": [
            {
              "internalType": "address payable",
              "name": "campaignOwner",
              "type": "address"
            },
            {
              "internalType": "uint256",
              "name": "id",
              "type": "uint256"
            },
            {
              "internalType": "string",
              "name": "campaignUrl",
              "type": "string"
            },
            {
              "internalType": "string",
              "name": "campaignHash",
              "type": "string"
            },
            {
              "internalType": "uint256",
              "name": "goalAmount",
              "type": "uint256"
            },
            {
              "internalType": "uint256",
              "name": "totalAmountFunded",
              "type": "uint256"
            },
            {
              "internalType": "uint256",
              "name": "deadline",
              "type": "uint256"
            },
            {
              "internalType": "bool",
              "name": "goalAchieved",
              "type": "bool"
            },
            {
              "internalType": "bool",
              "name": "isCampaignOpen",
              "type": "bool"
            },
            {
              "internalType": "bool",
              "name": "isExists",
              "type": "bool"
            },
            {
              "internalType": "bool",
              "name": "isOwnerWithdraw",
              "type": "bool"
            }
          ],
          "internalType": "struct CrowdFund.Campaign",
          "name": "",
          "type": "tuple"
        }
      ],
      "stateMutability": "view",
      "type": "function"
    },
    {
      "inputs": [],
      "name": "getCampaignCount",
      "outputs": [
        {
          "internalType": "uint256",
          "name": "",
          "type": "uint256"
        }
      ],
      "stateMutability": "view",
      "type": "function"
    },
    {
      "inputs": [
        {
          "internalType": "string",
          "name": "hash",
          "type": "string"
        }
      ],
      "name": "getContributions",
      "outputs": [
        {
          "internalType": "uint256",
          "name": "contribution",
          "type": "uint256"
        }
      ],
      "stateMutability": "view",
      "type": "function"
    },
    {
      "inputs": [
        {
          "internalType": "uint256",
          "name": "_id",
          "type": "uint256"
        }
      ],
      "name": "getHashById",
      "outputs": [
        {
          "internalType": "string",
          "name": "",
          "type": "string"
        }
      ],
      "stateMutability": "view",
      "type": "function"
    },
    {
      "inputs": [
        {
          "internalType": "string",
          "name": "",
          "type": "string"
        }
      ],
      "name": "hashToCampaign",
      "outputs": [
        {
          "internalType": "address payable",
          "name": "campaignOwner",
          "type": "address"
        },
        {
          "internalType": "uint256",
          "name": "id",
          "type": "uint256"
        },
        {
          "internalType": "string",
          "name": "campaignUrl",
          "type": "string"
        },
        {
          "internalType": "string",
          "name": "campaignHash",
          "type": "string"
        },
        {
          "internalType": "uint256",
          "name": "goalAmount",
          "type": "uint256"
        },
        {
          "internalType": "uint256",
          "name": "totalAmountFunded",
          "type": "uint256"
        },
        {
          "internalType": "uint256",
          "name": "deadline",
          "type": "uint256"
        },
        {
          "internalType": "bool",
          "name": "goalAchieved",
          "type": "bool"
        },
        {
          "internalType": "bool",
          "name": "isCampaignOpen",
          "type": "bool"
        },
        {
          "internalType": "bool",
          "name": "isExists",
          "type": "bool"
        },
        {
          "internalType": "bool",
          "name": "isOwnerWithdraw",
          "type": "bool"
        }
      ],
      "stateMutability": "view",
      "type": "function"
    },
    {
      "inputs": [
        {
          "internalType": "uint256",
          "name": "",
          "type": "uint256"
        }
      ],
      "name": "idToHash",
      "outputs": [
        {
          "internalType": "string",
          "name": "",
          "type": "string"
        }
      ],
      "stateMutability": "view",
      "type": "function"
    },
    {
      "inputs": [],
      "name": "minimum_fundAmount",
      "outputs": [
        {
          "internalType": "uint256",
          "name": "",
          "type": "uint256"
        }
      ],
      "stateMutability": "view",
      "type": "function"
    },
    {
      "inputs": [],
      "name": "minimum_goalAmount",
      "outputs": [
        {
          "internalType": "uint256",
          "name": "",
          "type": "uint256"
        }
      ],
      "stateMutability": "view",
      "type": "function"
    },
    {
      "inputs": [],
      "name": "owner",
      "outputs": [
        {
          "internalType": "address payable",
          "name": "",
          "type": "address"
        }
      ],
      "stateMutability": "view",
      "type": "function"
    },
    {
      "inputs": [],
      "name": "test",
      "outputs": [],
      "stateMutability": "nonpayable",
      "type": "function"
    },
    {
      "inputs": [
        {
          "internalType": "string",
          "name": "hash",
          "type": "string"
        }
      ],
      "name": "withdrawFunds",
      "outputs": [],
      "stateMutability": "nonpayable",
      "type": "function"
    }
  ],
  "transactionHash": "0xece45751c1f25a0bfab27136bca78b527a4e4ea217378749b3b9fdaac028a5cf",
  "args": [
    1000000000000000,
    100000000000000
  ],
  "numDeployments": 1,
  "solcInputHash": "8e8642941e9b62b42b9200c44430c243",
  "bytecode": "0x60806040523480156200001157600080fd5b5060405162002872380380620028728339818101604052810190620000379190620000cd565b336000806101000a81548173ffffffffffffffffffffffffffffffffffffffff021916908373ffffffffffffffffffffffffffffffffffffffff1602179055508160018190555080600281905550505062000114565b600080fd5b6000819050919050565b620000a78162000092565b8114620000b357600080fd5b50565b600081519050620000c7816200009c565b92915050565b60008060408385031215620000e757620000e66200008d565b5b6000620000f785828601620000b6565b92505060206200010a85828601620000b6565b9150509250929050565b61274e80620001246000396000f3fe6080604052600436106100f35760003560e01c80636caa92181161008a578063c3a0f11211610059578063c3a0f1121461031d578063cf8e4eef1461035a578063d02ed851146103a1578063f8a8fd6d146103ca576100f3565b80636caa92181461025f57806386cdf6041461028a5780638da5cb5b146102b55780638fb5548f146102e0576100f3565b8063364c234f116100c6578063364c234f146101915780634e8b87fe146101ce578063606db617146101f7578063697236e314610234576100f3565b806303b86b5a146100f857806303d3cd94146101215780631f3864d21461013d5780633020580b14610168575b600080fd5b34801561010457600080fd5b5061011f600480360381019061011a9190611dda565b6103e1565b005b61013b60048036038101906101369190611dda565b61069a565b005b34801561014957600080fd5b506101526109c7565b60405161015f9190611e3c565b60405180910390f35b34801561017457600080fd5b5061018f600480360381019061018a9190611e83565b6109cd565b005b34801561019d57600080fd5b506101b860048036038101906101b39190611dda565b610c0c565b6040516101c59190611e3c565b60405180910390f35b3480156101da57600080fd5b506101f560048036038101906101f09190611dda565b610cd8565b005b34801561020357600080fd5b5061021e60048036038101906102199190611ef2565b610f80565b60405161022b9190611fa7565b60405180910390f35b34801561024057600080fd5b50610249611025565b6040516102569190611e3c565b60405180910390f35b34801561026b57600080fd5b5061027461102b565b6040516102819190611e3c565b60405180910390f35b34801561029657600080fd5b5061029f61103c565b6040516102ac9190612236565b60405180910390f35b3480156102c157600080fd5b506102ca611339565b6040516102d79190612267565b60405180910390f35b3480156102ec57600080fd5b5061030760048036038101906103029190611ef2565b61135d565b6040516103149190611fa7565b60405180910390f35b34801561032957600080fd5b50610344600480360381019061033f9190611dda565b6113fd565b6040516103519190612378565b60405180910390f35b34801561036657600080fd5b50610381600480360381019061037c9190611dda565b611644565b6040516103989b9a999897969594939291906123a9565b60405180910390f35b3480156103ad57600080fd5b506103c860048036038101906103c39190611dda565b611818565b005b3480156103d657600080fd5b506103df611962565b005b806005816040516103f2919061249e565b908152602001604051809103902060000160009054906101000a900473ffffffffffffffffffffffffffffffffffffffff1673ffffffffffffffffffffffffffffffffffffffff163373ffffffffffffffffffffffffffffffffffffffff1614610488576040517f86130b0600000000000000000000000000000000000000000000000000000000815260040160405180910390fd5b81600581604051610499919061249e565b908152602001604051809103902060070160029054906101000a900460ff166104ee576040517fe28a491b00000000000000000000000000000000000000000000000000000000815260040160405180910390fd5b6005836040516104fe919061249e565b908152602001604051809103902060070160009054906101000a900460ff16610553576040517f8b0b714300000000000000000000000000000000000000000000000000000000815260040160405180910390fd5b600583604051610563919061249e565b908152602001604051809103902060070160039054906101000a900460ff16156105b9576040517f8ca2127000000000000000000000000000000000000000000000000000000000815260040160405180910390fd5b3373ffffffffffffffffffffffffffffffffffffffff166108fc6005856040516105e3919061249e565b9081526020016040518091039020600501549081150290604051600060405180830381858888f19350505050158015610620573d6000803e3d6000fd5b506001600584604051610633919061249e565b908152602001604051809103902060070160036101000a81548160ff021916908315150217905550600060058460405161066d919061249e565b908152602001604051809103902060070160016101000a81548160ff021916908315150217905550505050565b806005816040516106ab919061249e565b908152602001604051809103902060070160029054906101000a900460ff16610700576040517fe28a491b00000000000000000000000000000000000000000000000000000000815260040160405180910390fd5b610709826119b1565b662386f26fc1000034101561074a576040517f4b6a1b4c00000000000000000000000000000000000000000000000000000000815260040160405180910390fd5b60058260405161075a919061249e565b908152602001604051809103902060070160019054906101000a900460ff166107af576040517fbf9b31cc00000000000000000000000000000000000000000000000000000000815260040160405180910390fd5b6107b882611a4a565b346006836040516107c9919061249e565b908152602001604051809103902060003373ffffffffffffffffffffffffffffffffffffffff1673ffffffffffffffffffffffffffffffffffffffff1681526020019081526020016000205461081f91906124e4565b60068360405161082f919061249e565b908152602001604051809103902060003373ffffffffffffffffffffffffffffffffffffffff1673ffffffffffffffffffffffffffffffffffffffff168152602001908152602001600020819055503460058360405161088f919061249e565b9081526020016040518091039020600501546108ab91906124e4565b6005836040516108bb919061249e565b9081526020016040518091039020600501819055506108d9826119b1565b6005826040516108e9919061249e565b908152602001604051809103902060010154343373ffffffffffffffffffffffffffffffffffffffff167fd5321498ebef1d048889992d8457d0f50576d300db1fd93488480c1f57a6560160405160405180910390a460058260405161094f919061249e565b908152602001604051809103902060040154600583604051610971919061249e565b908152602001604051809103902060050154106109c357600160058360405161099a919061249e565b908152602001604051809103902060070160006101000a81548160ff0219169083151502179055505b5050565b60025481565b60008211610a07576040517ff795043500000000000000000000000000000000000000000000000000000000815260040160405180910390fd5b60018111158015610a1a575061016d8110155b15610a51576040517fcbdf561600000000000000000000000000000000000000000000000000000000815260040160405180910390fd5b610a5b6003611b18565b6000610a676003611b2e565b905083600460008381526020019081526020016000209080519060200190610a90929190611b65565b506000600585604051610aa3919061249e565b90815260200160405180910390209050338160000160006101000a81548173ffffffffffffffffffffffffffffffffffffffff021916908373ffffffffffffffffffffffffffffffffffffffff16021790555081816001018190555084816003019080519060200190610b17929190611b65565b50838160040181905550600081600501819055506201518083610b3a919061253a565b42610b4591906124e4565b816006018190555060008160070160006101000a81548160ff02191690831515021790555060018160070160016101000a81548160ff02191690831515021790555060018160070160026101000a81548160ff02191690831515021790555060008160070160036101000a81548160ff021916908315150217905550813373ffffffffffffffffffffffffffffffffffffffff167fcc9018de05b5f497ee7618d8830568d8ac2d45d0671b73d8f71c67e824122ec760405160405180910390a35050505050565b600081600581604051610c1f919061249e565b908152602001604051809103902060070160029054906101000a900460ff16610c74576040517fe28a491b00000000000000000000000000000000000000000000000000000000815260040160405180910390fd5b600683604051610c84919061249e565b908152602001604051809103902060003373ffffffffffffffffffffffffffffffffffffffff1673ffffffffffffffffffffffffffffffffffffffff16815260200190815260200160002054915050919050565b80600581604051610ce9919061249e565b908152602001604051809103902060070160029054906101000a900460ff16610d3e576040517fe28a491b00000000000000000000000000000000000000000000000000000000815260040160405180910390fd5b6000600683604051610d50919061249e565b908152602001604051809103902060003373ffffffffffffffffffffffffffffffffffffffff1673ffffffffffffffffffffffffffffffffffffffff1681526020019081526020016000205411610dd3576040517fecdb278300000000000000000000000000000000000000000000000000000000815260040160405180910390fd5b610ddc82611a4a565b600582604051610dec919061249e565b908152602001604051809103902060070160019054906101000a900460ff168015610e425750600582604051610e22919061249e565b908152602001604051809103902060070160009054906101000a900460ff165b15610e79576040517fea3cd64d00000000000000000000000000000000000000000000000000000000815260040160405180910390fd5b3373ffffffffffffffffffffffffffffffffffffffff166108fc600684604051610ea3919061249e565b908152602001604051809103902060003373ffffffffffffffffffffffffffffffffffffffff1673ffffffffffffffffffffffffffffffffffffffff168152602001908152602001600020549081150290604051600060405180830381858888f19350505050158015610f1a573d6000803e3d6000fd5b506000600683604051610f2d919061249e565b908152602001604051809103902060003373ffffffffffffffffffffffffffffffffffffffff1673ffffffffffffffffffffffffffffffffffffffff168152602001908152602001600020819055505050565b6060600460008381526020019081526020016000208054610fa0906125c3565b80601f0160208091040260200160405190810160405280929190818152602001828054610fcc906125c3565b80156110195780601f10610fee57610100808354040283529160200191611019565b820191906000526020600020905b815481529060010190602001808311610ffc57829003601f168201915b50505050509050919050565b60015481565b60006110376003611b2e565b905090565b6060600061104a6003611b2e565b905060008167ffffffffffffffff81111561106857611067611caf565b5b6040519080825280602002602001820160405280156110a157816020015b61108e611beb565b8152602001906001900390816110865790505b50905060005b828110156113305760006005600460008481526020019081526020016000206040516110d39190612689565b9081526020016040518091039020905080604051806101600160405290816000820160009054906101000a900473ffffffffffffffffffffffffffffffffffffffff1673ffffffffffffffffffffffffffffffffffffffff1673ffffffffffffffffffffffffffffffffffffffff16815260200160018201548152602001600282018054611160906125c3565b80601f016020809104026020016040519081016040528092919081815260200182805461118c906125c3565b80156111d95780601f106111ae576101008083540402835291602001916111d9565b820191906000526020600020905b8154815290600101906020018083116111bc57829003601f168201915b505050505081526020016003820180546111f2906125c3565b80601f016020809104026020016040519081016040528092919081815260200182805461121e906125c3565b801561126b5780601f106112405761010080835404028352916020019161126b565b820191906000526020600020905b81548152906001019060200180831161124e57829003601f168201915b505050505081526020016004820154815260200160058201548152602001600682015481526020016007820160009054906101000a900460ff161515151581526020016007820160019054906101000a900460ff161515151581526020016007820160029054906101000a900460ff161515151581526020016007820160039054906101000a900460ff161515151581525050838381518110611311576113106126a0565b5b6020026020010181905250508080611328906126cf565b9150506110a7565b50809250505090565b60008054906101000a900473ffffffffffffffffffffffffffffffffffffffff1681565b6004602052806000526040600020600091509050805461137c906125c3565b80601f01602080910402602001604051908101604052809291908181526020018280546113a8906125c3565b80156113f55780601f106113ca576101008083540402835291602001916113f5565b820191906000526020600020905b8154815290600101906020018083116113d857829003601f168201915b505050505081565b611405611beb565b600582604051611415919061249e565b9081526020016040518091039020604051806101600160405290816000820160009054906101000a900473ffffffffffffffffffffffffffffffffffffffff1673ffffffffffffffffffffffffffffffffffffffff1673ffffffffffffffffffffffffffffffffffffffff1681526020016001820154815260200160028201805461149f906125c3565b80601f01602080910402602001604051908101604052809291908181526020018280546114cb906125c3565b80156115185780601f106114ed57610100808354040283529160200191611518565b820191906000526020600020905b8154815290600101906020018083116114fb57829003601f168201915b50505050508152602001600382018054611531906125c3565b80601f016020809104026020016040519081016040528092919081815260200182805461155d906125c3565b80156115aa5780601f1061157f576101008083540402835291602001916115aa565b820191906000526020600020905b81548152906001019060200180831161158d57829003601f168201915b505050505081526020016004820154815260200160058201548152602001600682015481526020016007820160009054906101000a900460ff161515151581526020016007820160019054906101000a900460ff161515151581526020016007820160029054906101000a900460ff161515151581526020016007820160039054906101000a900460ff1615151515815250509050919050565b6005818051602081018201805184825260208301602085012081835280955050505050506000915090508060000160009054906101000a900473ffffffffffffffffffffffffffffffffffffffff16908060010154908060020180546116a9906125c3565b80601f01602080910402602001604051908101604052809291908181526020018280546116d5906125c3565b80156117225780601f106116f757610100808354040283529160200191611722565b820191906000526020600020905b81548152906001019060200180831161170557829003601f168201915b505050505090806003018054611737906125c3565b80601f0160208091040260200160405190810160405280929190818152602001828054611763906125c3565b80156117b05780601f10611785576101008083540402835291602001916117b0565b820191906000526020600020905b81548152906001019060200180831161179357829003601f168201915b5050505050908060040154908060050154908060060154908060070160009054906101000a900460ff16908060070160019054906101000a900460ff16908060070160029054906101000a900460ff16908060070160039054906101000a900460ff1690508b565b80600581604051611829919061249e565b908152602001604051809103902060000160009054906101000a900473ffffffffffffffffffffffffffffffffffffffff1673ffffffffffffffffffffffffffffffffffffffff163373ffffffffffffffffffffffffffffffffffffffff16146118bf576040517f86130b0600000000000000000000000000000000000000000000000000000000815260040160405180910390fd5b6005826040516118cf919061249e565b908152602001604051809103902060070160019054906101000a900460ff16611924576040517fbf9b31cc00000000000000000000000000000000000000000000000000000000815260040160405180910390fd5b6000600583604051611936919061249e565b908152602001604051809103902060070160016101000a81548160ff0219169083151502179055505050565b61196c6003611b2e565b3373ffffffffffffffffffffffffffffffffffffffff167f4ba54330f8090ac87ed0a0b470fd9c8a6bbec84bfe94f4fa7776d1dc27da9f9c60405160405180910390a3565b611a47816040516024016119c59190611fa7565b6040516020818303038152906040527f41304fac000000000000000000000000000000000000000000000000000000007bffffffffffffffffffffffffffffffffffffffffffffffffffffffff19166020820180517bffffffffffffffffffffffffffffffffffffffffffffffffffffffff8381831617835250505050611b3c565b50565b80600581604051611a5b919061249e565b908152602001604051809103902060070160029054906101000a900460ff16611ab0576040517fe28a491b00000000000000000000000000000000000000000000000000000000815260040160405180910390fd5b600582604051611ac0919061249e565b908152602001604051809103902060060154421115611b14576000600583604051611aeb919061249e565b908152602001604051809103902060070160016101000a81548160ff0219169083151502179055505b5050565b6001816000016000828254019250508190555050565b600081600001549050919050565b60008151905060006a636f6e736f6c652e6c6f679050602083016000808483855afa5050505050565b828054611b71906125c3565b90600052602060002090601f016020900481019282611b935760008555611bda565b82601f10611bac57805160ff1916838001178555611bda565b82800160010185558215611bda579182015b82811115611bd9578251825591602001919060010190611bbe565b5b509050611be79190611c63565b5090565b604051806101600160405280600073ffffffffffffffffffffffffffffffffffffffff1681526020016000815260200160608152602001606081526020016000815260200160008152602001600081526020016000151581526020016000151581526020016000151581526020016000151581525090565b5b80821115611c7c576000816000905550600101611c64565b5090565b6000604051905090565b600080fd5b600080fd5b600080fd5b600080fd5b6000601f19601f8301169050919050565b7f4e487b7100000000000000000000000000000000000000000000000000000000600052604160045260246000fd5b611ce782611c9e565b810181811067ffffffffffffffff82111715611d0657611d05611caf565b5b80604052505050565b6000611d19611c80565b9050611d258282611cde565b919050565b600067ffffffffffffffff821115611d4557611d44611caf565b5b611d4e82611c9e565b9050602081019050919050565b82818337600083830152505050565b6000611d7d611d7884611d2a565b611d0f565b905082815260208101848484011115611d9957611d98611c99565b5b611da4848285611d5b565b509392505050565b600082601f830112611dc157611dc0611c94565b5b8135611dd1848260208601611d6a565b91505092915050565b600060208284031215611df057611def611c8a565b5b600082013567ffffffffffffffff811115611e0e57611e0d611c8f565b5b611e1a84828501611dac565b91505092915050565b6000819050919050565b611e3681611e23565b82525050565b6000602082019050611e516000830184611e2d565b92915050565b611e6081611e23565b8114611e6b57600080fd5b50565b600081359050611e7d81611e57565b92915050565b600080600060608486031215611e9c57611e9b611c8a565b5b600084013567ffffffffffffffff811115611eba57611eb9611c8f565b5b611ec686828701611dac565b9350506020611ed786828701611e6e565b9250506040611ee886828701611e6e565b9150509250925092565b600060208284031215611f0857611f07611c8a565b5b6000611f1684828501611e6e565b91505092915050565b600081519050919050565b600082825260208201905092915050565b60005b83811015611f59578082015181840152602081019050611f3e565b83811115611f68576000848401525b50505050565b6000611f7982611f1f565b611f838185611f2a565b9350611f93818560208601611f3b565b611f9c81611c9e565b840191505092915050565b60006020820190508181036000830152611fc18184611f6e565b905092915050565b600081519050919050565b600082825260208201905092915050565b6000819050602082019050919050565b600073ffffffffffffffffffffffffffffffffffffffff82169050919050565b600061202082611ff5565b9050919050565b61203081612015565b82525050565b61203f81611e23565b82525050565b600082825260208201905092915050565b600061206182611f1f565b61206b8185612045565b935061207b818560208601611f3b565b61208481611c9e565b840191505092915050565b60008115159050919050565b6120a48161208f565b82525050565b6000610160830160008301516120c36000860182612027565b5060208301516120d66020860182612036565b50604083015184820360408601526120ee8282612056565b915050606083015184820360608601526121088282612056565b915050608083015161211d6080860182612036565b5060a083015161213060a0860182612036565b5060c083015161214360c0860182612036565b5060e083015161215660e086018261209b565b5061010083015161216b61010086018261209b565b5061012083015161218061012086018261209b565b5061014083015161219561014086018261209b565b508091505092915050565b60006121ac83836120aa565b905092915050565b6000602082019050919050565b60006121cc82611fc9565b6121d68185611fd4565b9350836020820285016121e885611fe5565b8060005b85811015612224578484038952815161220585826121a0565b9450612210836121b4565b925060208a019950506001810190506121ec565b50829750879550505050505092915050565b6000602082019050818103600083015261225081846121c1565b905092915050565b61226181612015565b82525050565b600060208201905061227c6000830184612258565b92915050565b60006101608301600083015161229b6000860182612027565b5060208301516122ae6020860182612036565b50604083015184820360408601526122c68282612056565b915050606083015184820360608601526122e08282612056565b91505060808301516122f56080860182612036565b5060a083015161230860a0860182612036565b5060c083015161231b60c0860182612036565b5060e083015161232e60e086018261209b565b5061010083015161234361010086018261209b565b5061012083015161235861012086018261209b565b5061014083015161236d61014086018261209b565b508091505092915050565b600060208201905081810360008301526123928184612282565b905092915050565b6123a38161208f565b82525050565b6000610160820190506123bf600083018e612258565b6123cc602083018d611e2d565b81810360408301526123de818c611f6e565b905081810360608301526123f2818b611f6e565b9050612401608083018a611e2d565b61240e60a0830189611e2d565b61241b60c0830188611e2d565b61242860e083018761239a565b61243661010083018661239a565b61244461012083018561239a565b61245261014083018461239a565b9c9b505050505050505050505050565b600081905092915050565b600061247882611f1f565b6124828185612462565b9350612492818560208601611f3b565b80840191505092915050565b60006124aa828461246d565b915081905092915050565b7f4e487b7100000000000000000000000000000000000000000000000000000000600052601160045260246000fd5b60006124ef82611e23565b91506124fa83611e23565b9250827fffffffffffffffffffffffffffffffffffffffffffffffffffffffffffffffff0382111561252f5761252e6124b5565b5b828201905092915050565b600061254582611e23565b915061255083611e23565b9250817fffffffffffffffffffffffffffffffffffffffffffffffffffffffffffffffff0483118215151615612589576125886124b5565b5b828202905092915050565b7f4e487b7100000000000000000000000000000000000000000000000000000000600052602260045260246000fd5b600060028204905060018216806125db57607f821691505b602082108114156125ef576125ee612594565b5b50919050565b60008190508160005260206000209050919050565b60008154612617816125c3565b6126218186612462565b9450600182166000811461263c576001811461264d57612680565b60ff19831686528186019350612680565b612656856125f5565b60005b8381101561267857815481890152600182019150602081019050612659565b838801955050505b50505092915050565b6000612695828461260a565b915081905092915050565b7f4e487b7100000000000000000000000000000000000000000000000000000000600052603260045260246000fd5b60006126da82611e23565b91507fffffffffffffffffffffffffffffffffffffffffffffffffffffffffffffffff82141561270d5761270c6124b5565b5b60018201905091905056fea264697066735822122077835cc928fd6716fc6019a9a5b2d84bdecd9896a37d33e0744d11d70b49fabb64736f6c63430008080033",
  "devdoc": {
    "kind": "dev",
    "methods": {},
    "version": 1
  },
  "userdoc": {
    "kind": "user",
    "methods": {},
    "version": 1
  },
  "storageLayout": {
    "storage": [
      {
        "astId": 121,
        "contract": "contracts/CrowdFund.sol:CrowdFund",
        "label": "owner",
        "offset": 0,
        "slot": "0",
        "type": "t_address_payable"
      },
      {
        "astId": 123,
        "contract": "contracts/CrowdFund.sol:CrowdFund",
        "label": "minimum_goalAmount",
        "offset": 0,
        "slot": "1",
        "type": "t_uint256"
      },
      {
        "astId": 125,
        "contract": "contracts/CrowdFund.sol:CrowdFund",
        "label": "minimum_fundAmount",
        "offset": 0,
        "slot": "2",
        "type": "t_uint256"
      },
      {
        "astId": 132,
        "contract": "contracts/CrowdFund.sol:CrowdFund",
        "label": "_campaignIds",
        "offset": 0,
        "slot": "3",
        "type": "t_struct(Counter)5_storage"
      },
      {
        "astId": 159,
        "contract": "contracts/CrowdFund.sol:CrowdFund",
        "label": "idToHash",
        "offset": 0,
        "slot": "4",
        "type": "t_mapping(t_uint256,t_string_storage)"
      },
      {
        "astId": 164,
        "contract": "contracts/CrowdFund.sol:CrowdFund",
        "label": "hashToCampaign",
        "offset": 0,
        "slot": "5",
        "type": "t_mapping(t_string_memory_ptr,t_struct(Campaign)155_storage)"
      },
      {
        "astId": 170,
        "contract": "contracts/CrowdFund.sol:CrowdFund",
        "label": "hashTOContributions",
        "offset": 0,
        "slot": "6",
        "type": "t_mapping(t_string_memory_ptr,t_mapping(t_address,t_uint256))"
      }
    ],
    "types": {
      "t_address": {
        "encoding": "inplace",
        "label": "address",
        "numberOfBytes": "20"
      },
      "t_address_payable": {
        "encoding": "inplace",
        "label": "address payable",
        "numberOfBytes": "20"
      },
      "t_bool": {
        "encoding": "inplace",
        "label": "bool",
        "numberOfBytes": "1"
      },
      "t_mapping(t_address,t_uint256)": {
        "encoding": "mapping",
        "key": "t_address",
        "label": "mapping(address => uint256)",
        "numberOfBytes": "32",
        "value": "t_uint256"
      },
      "t_mapping(t_string_memory_ptr,t_mapping(t_address,t_uint256))": {
        "encoding": "mapping",
        "key": "t_string_memory_ptr",
        "label": "mapping(string => mapping(address => uint256))",
        "numberOfBytes": "32",
        "value": "t_mapping(t_address,t_uint256)"
      },
      "t_mapping(t_string_memory_ptr,t_struct(Campaign)155_storage)": {
        "encoding": "mapping",
        "key": "t_string_memory_ptr",
        "label": "mapping(string => struct CrowdFund.Campaign)",
        "numberOfBytes": "32",
        "value": "t_struct(Campaign)155_storage"
      },
      "t_mapping(t_uint256,t_string_storage)": {
        "encoding": "mapping",
        "key": "t_uint256",
        "label": "mapping(uint256 => string)",
        "numberOfBytes": "32",
        "value": "t_string_storage"
      },
      "t_string_memory_ptr": {
        "encoding": "bytes",
        "label": "string",
        "numberOfBytes": "32"
      },
      "t_string_storage": {
        "encoding": "bytes",
        "label": "string",
        "numberOfBytes": "32"
      },
      "t_struct(Campaign)155_storage": {
        "encoding": "inplace",
        "label": "struct CrowdFund.Campaign",
        "members": [
          {
            "astId": 134,
            "contract": "contracts/CrowdFund.sol:CrowdFund",
            "label": "campaignOwner",
            "offset": 0,
            "slot": "0",
            "type": "t_address_payable"
          },
          {
            "astId": 136,
            "contract": "contracts/CrowdFund.sol:CrowdFund",
            "label": "id",
            "offset": 0,
            "slot": "1",
            "type": "t_uint256"
          },
          {
            "astId": 138,
            "contract": "contracts/CrowdFund.sol:CrowdFund",
            "label": "campaignUrl",
            "offset": 0,
            "slot": "2",
            "type": "t_string_storage"
          },
          {
            "astId": 140,
            "contract": "contracts/CrowdFund.sol:CrowdFund",
            "label": "campaignHash",
            "offset": 0,
            "slot": "3",
            "type": "t_string_storage"
          },
          {
            "astId": 142,
            "contract": "contracts/CrowdFund.sol:CrowdFund",
            "label": "goalAmount",
            "offset": 0,
            "slot": "4",
            "type": "t_uint256"
          },
          {
            "astId": 144,
            "contract": "contracts/CrowdFund.sol:CrowdFund",
            "label": "totalAmountFunded",
            "offset": 0,
            "slot": "5",
            "type": "t_uint256"
          },
          {
            "astId": 146,
            "contract": "contracts/CrowdFund.sol:CrowdFund",
            "label": "deadline",
            "offset": 0,
            "slot": "6",
            "type": "t_uint256"
          },
          {
            "astId": 148,
            "contract": "contracts/CrowdFund.sol:CrowdFund",
            "label": "goalAchieved",
            "offset": 0,
            "slot": "7",
            "type": "t_bool"
          },
          {
            "astId": 150,
            "contract": "contracts/CrowdFund.sol:CrowdFund",
            "label": "isCampaignOpen",
            "offset": 1,
            "slot": "7",
            "type": "t_bool"
          },
          {
            "astId": 152,
            "contract": "contracts/CrowdFund.sol:CrowdFund",
            "label": "isExists",
            "offset": 2,
            "slot": "7",
            "type": "t_bool"
          },
          {
            "astId": 154,
            "contract": "contracts/CrowdFund.sol:CrowdFund",
            "label": "isOwnerWithdraw",
            "offset": 3,
            "slot": "7",
            "type": "t_bool"
          }
        ],
        "numberOfBytes": "256"
      },
      "t_struct(Counter)5_storage": {
        "encoding": "inplace",
        "label": "struct Counters.Counter",
        "members": [
          {
            "astId": 4,
            "contract": "contracts/CrowdFund.sol:CrowdFund",
            "label": "_value",
            "offset": 0,
            "slot": "0",
            "type": "t_uint256"
          }
        ],
        "numberOfBytes": "32"
      },
      "t_uint256": {
        "encoding": "inplace",
        "label": "uint256",
        "numberOfBytes": "32"
      }
    }
  }
}